:020000040800F2
:1000000000500020D520000891170008971700081D
:100010009D170008A3170008A9170008000000009A
:10002000000000000000000000000000AF17000802
:10003000BB17000800000000C7170008D31700080E
:100040001D2100081D2100081D2100081D21000898
:100050001D2100081D2100081D2100081D21000888
:100060001D2100081D2100081D2100081D21000878
:100070001D2100081D2100081D2100081D21000868
:100080001D2100081D2100081D2100081D21000858
:100090001D2100081D2100081D2100081D21000848
:1000A0001D2100081D2100081D2100081D21000838
:1000B000E11700081D2100081D2100081D2100086E
:1000C0001D2100081D2100081D2100081D21000818
:1000D0001D2100081D210008F51700081D2100083A
:1000E0001D2100081D2100081D210008000000003E
:1000F0000000000000000000000000000000000000
:0C01000000000000000000005FF808F1A3
:10010C0010B5054C237833B9044B13B10448AFF345
:10011C0000800123237010BD980000200000000017
:10012C00F052000808B5034B1BB103490348AFF369
:10013C00008008BD000000009C000020F052000868
:10014C0081F0004102E000BF83F0004330B54FEA7C
:10015C0041044FEA430594EA050F08BF90EA020FE9
:10016C001FBF54EA000C55EA020C7FEA645C7FEA7C
:10017C00655C00F0E2804FEA5454D4EB5555B8BF9F
:10018C006D420CDD2C4480EA020281EA030382EA10
:10019C00000083EA010180EA020281EA0303362DA2
:1001AC0088BF30BD11F0004F4FEA01314FF4801C75
:1001BC004CEA113102D0404261EB410113F0004F87
:1001CC004FEA03334CEA133302D0524263EB43033E
:1001DC0094EA050F00F0A780A4F10104D5F1200EDC
:1001EC000DDB02FA0EFC22FA05F2801841F1000137
:1001FC0003FA0EF2801843FA05F359410EE0A5F10B
:10020C0020050EF1200E012A03FA0EFC28BF4CF03B
:10021C00020C43FA05F3C01851EBE37101F00045F1
:10022C0007D54FF0000EDCF1000C7EEB00006EEBFE
:10023C000101B1F5801F1BD3B1F5001F0CD3490888
:10024C005FEA30004FEA3C0C04F101044FEA4452DF
:10025C0012F5800F80F09A80BCF1004F08BF5FEA66
:10026C00500C50F1000041EB045141EA050130BD46
:10027C005FEA4C0C404141EB0101013C28BFB1F558
:10028C00801FE9D291F0000F04BF01460020B1FAA3
:10029C0081F308BF2033A3F10B03B3F120020CDA76
:1002AC000C3208DD02F1140CC2F10C0201FA0CF054
:1002BC0021FA02F10CE002F11402D8BFC2F1200CB9
:1002CC0001FA02F120FA0CFCDCBF41EA0C0190406F
:1002DC00E41AA2BF01EB0451294330BD6FEA0404B8
:1002EC001F3C1CDA0C340EDC04F11404C4F12002A3
:1002FC0020FA04F001FA02F340EA030021FA04F3B5
:10030C0045EA030130BDC4F10C04C4F1200220FA0B
:10031C0002F001FA04F340EA0300294630BD21FA49
:10032C0004F0294630BD94F0000F83F4801306BF0F
:10033C0081F480110134013D4EE77FEA645C18BF03
:10034C007FEA655C29D094EA050F08BF90EA020F9A
:10035C0005D054EA000C04BF1946104630BD91EA92
:10036C00030F1EBF0021002030BD5FEA545C05D195
:10037C004000494128BF41F0004130BD14F58004D4
:10038C003CBF01F5801130BD01F0004545F0FE4148
:10039C0041F470014FF0000030BD7FEA645C1ABF7D
:1003AC00194610467FEA655C1CBF0B46024650EAB4
:1003BC00013406BF52EA033591EA030F41F40021E0
:1003CC0030BD00BF90F0000F04BF0021704730B566
:1003DC004FF4806404F132044FF000054FF000013B
:1003EC0050E700BF90F0000F04BF0021704730B5FC
:1003FC004FF4806404F1320410F0004548BF4042D1
:10040C004FF000013EE700BF42004FEAE2014FEA25
:10041C0031014FEA02701FBF12F07F4393F07F4F00
:10042C0081F06051704732F07F4208BF704793F003
:10043C007F4F04BF41F40021704730B54FF4607416
:10044C0001F0004521F000411CE700BF50EA010219
:10045C0008BF704730B54FF000050AE050EA0102C2
:10046C0008BF704730B511F0004502D5404261EB32
:10047C0041014FF4806404F132045FEA915C3FF473
:10048C00D8AE4FF003025FEADC0C18BF03325FEA10
:10049C00DC0C18BF033202EBDC02C2F1200300FAC1
:1004AC0003FC20FA02F001FA03FE40EA0E0021FAE6
:1004BC0002F11444BDE600BF70B54FF0FF0C4CF4D4
:1004CC00E06C1CEA11541DBF1CEA135594EA0C0F86
:1004DC0095EA0C0F00F0DEF82C4481EA030621EAC1
:1004EC004C5123EA4C5350EA013518BF52EA0335FC
:1004FC0041F4801143F4801338D0A0FB02CE4FF0AE
:10050C000005E1FB02E506F00042E0FB03E54FF0DD
:10051C000006E1FB03569CF0000F18BF4EF0010ED5
:10052C00A4F1FF04B6F5007F64F5407404D25FEAD1
:10053C004E0E6D4146EB060642EAC62141EA555184
:10054C004FEAC52040EA5E504FEACE2EB4F1FD0CC6
:10055C0088BFBCF5E06F1ED8BEF1004F08BF5FEA44
:10056C00500E50F1000041EB045170BD06F00046F6
:10057C0046EA010140EA020081EA0301B4EB5C04A3
:10058C00C2BFD4EB0C0541EA045170BD41F480119B
:10059C004FF0000E013C00F3AB8014F1360FDEBFC0
:1005AC00002001F0004170BDC4F10004203C35DA9C
:1005BC000C341BDC04F11404C4F1200500FA05F31F
:1005CC0020FA04F001FA05F240EA020001F00042C0
:1005DC0021F0004110EBD37021FA04F642EB060136
:1005EC005EEA430E08BF20EAD37070BDC4F10C0460
:1005FC00C4F1200500FA04F320FA05F001FA04F224
:10060C0040EA020001F0004110EBD37041F100010F
:10061C005EEA430E08BF20EAD37070BDC4F120051A
:10062C0000FA05F24EEA020E20FA04F301FA05F282
:10063C0043EA020321FA04F001F0004121FA04F22A
:10064C0020EA020000EBD3705EEA430E08BF20EAFA
:10065C00D37070BD94F0000F0FD101F00046400034
:10066C0041EB010111F4801F08BF013CF7D041EAB6
:10067C00060195F0000F18BF704703F000465200BA
:10068C0043EB030313F4801F08BF013DF7D043EA8B
:10069C000603704794EA0C0F0CEA135518BF95EA41
:1006AC000C0F0CD050EA410618BF52EA4306D1D1C8
:1006BC0081EA030101F000414FF0000070BD50EAE7
:1006CC00410606BF1046194652EA430619D094EA71
:1006DC000C0F02D150EA013613D195EA0C0F05D15B
:1006EC0052EA03361CBF104619460AD181EA0301AF
:1006FC0001F0004141F0FE4141F470014FF0000067
:10070C0070BD41F0FE4141F4780170BD70B54FF001
:10071C00FF0C4CF4E06C1CEA11541DBF1CEA135581
:10072C0094EA0C0F95EA0C0F00F0A7F8A4EB050463
:10073C0081EA030E52EA03354FEA013100F088805A
:10074C004FEA03334FF0805545EA131343EA126323
:10075C004FEA022245EA111545EA10654FEA0026D8
:10076C000EF000419D4208BF964244F1FD0404F591
:10077C00407402D25B084FEA3202B61A65EB0305ED
:10078C005B084FEA32024FF480104FF4002CB6EBAA
:10079C00020E75EB030E22BFB61A754640EA0C002A
:1007AC005B084FEA3202B6EB020E75EB030E22BF6A
:1007BC00B61A754640EA5C005B084FEA3202B6EBAB
:1007CC00020E75EB030E22BFB61A754640EA9C006A
:1007DC005B084FEA3202B6EB020E75EB030E22BF3A
:1007EC00B61A754640EADC0055EA060E18D04FEAF8
:1007FC00051545EA16754FEA06164FEAC30343EA98
:10080C0052734FEAC2025FEA1C1CC0D111F4801F64
:10081C000BD141EA00014FF000004FF0004CB6E75D
:10082C0011F4801F04BF01430020B4F1FD0C88BFFC
:10083C00BCF5E06F3FF6AFAEB5EB030C04BFB6EB07
:10084C00020C5FEA500C50F1000041EB045170BDFA
:10085C000EF0004E4EEA113114EB5C04C2BFD4EB27
:10086C000C0541EA045170BD41F480114FF0000EAB
:10087C00013C90E645EA060E8DE60CEA135594EA27
:10088C000C0F08BF95EA0C0F3FF43BAF94EA0C0F2A
:10089C000AD150EA01347FF434AF95EA0C0F7FF49F
:1008AC0025AF104619462CE795EA0C0F06D152EAF3
:1008BC0003353FF4FDAE1046194622E750EA4106D7
:1008CC0018BF52EA43067FF4C5AE50EA41047FF4E8
:1008DC000DAF52EA43057FF4EBAE12E74FEA41024B
:1008EC0012F5001215D211D56FF47873B3EB625276
:1008FC0012D94FEAC12343F0004343EA505311F09D
:10090C00004F23FA02F018BF404270474FF000002E
:10091C00704750EA013005D111F0004008BF6FF06C
:10092C00004070474FF00000704700BF80B500AF2B
:10093C00704B1B68013B042B00F2DA8001A252F8C9
:10094C0023F000BF6509000899090008EB090008AD
:10095C00430A0008970A0008674B02221A6000F04D
:10096C00D3FF01F059F801F0BDF8624B02221A6076
:10097C00624B1B68624A136001F0DCF84FF47A702A
:10098C0000F078FF5C4B04221A60B1E05D4B1B68F1
:10099C00012B1AD15A4B1B68013B594A13604FF477
:1009AC007A7000F067FF564B1A68574B1B689A42D7
:1009BC0006D101F041F801F095F84E4B03221A6074
:1009CC004D4B04221A6001F0B5F8012000F0A2F89A
:1009DC000346002B00F0858001F0E2FA88E0494BD9
:1009EC001B68012B1ED1464B1B68013B444A13600C
:1009FC004FF47A7000F03EFF414B1B68002B0FD177
:100A0C00424B1B683E4A136000F092FF00F0F4FF6B
:100A1C0001F054F8374B04221A60374B03221A604A
:100A2C0001F088F8012000F075F80346002B5AD02D
:100A3C0001F0B6FA5CE0334B1B68012B1CD1304B38
:100A4C001B68013B2E4A13604FF47A7000F012FFC2
:100A5C002B4B1B68002B0DD12D4B1B68284A1360A8
:100A6C0000F07AFF01F02AF8224B05221A60224B83
:100A7C0003221A6001F05EF8012000F04BF80346E7
:100A8C00002B32D001F08CFA32E01E4B1B68012B8C
:100A9C001ED11B4B1B68013B194A13604FF47A7033
:100AAC0000F0E8FE164B1B68002B0FD1134B1B6894
:100ABC00134A136000F028FF00F0AEFF01F012F8AB
:100ACC000C4B02221A600C4B04221A6001F032F813
:100ADC00012000F01FF80346002B08D001F060FA4B
:100AEC0006E000BF04E000BF02E000BF00E000BF72
:100AFC0000BF80BD14010020180100201000002050
:100B0C001C010020340100202400002014000020CF
:100B1C001800002080B483B000AF7860094A7B686D
:100B2C0052F82330012B06D1064A7B68002142F88B
:100B3C002310012300E0002318460C37BD4680BC6F
:100B4C00704700BF0401002080B483B000AF786010
:100B5C007B68002B07DB7B68032B04DC044A7B6877
:100B6C00012142F8231000BF0C37BD4680BC7047F2
:100B7C000401002080B582B000AF0023FB71E5E0DA
:100B8C00FA79FB79764951F82220764941F82320ED
:100B9C00FA79FB79744951F82220714941F82320E4
:100BAC00FB79002B0BD10121704801F057FE034655
:100BBC001A46FB7911466C4A42F823102BE0FB795C
:100BCC00012B0BD10221694801F048FE03461A465D
:100BDC00FB791146644A42F823101CE0FB79022B86
:100BEC000BD11021614801F039FE03461A46FB79FE
:100BFC0011465D4A42F823100DE0FB79032B0AD114
:100C0C0001215B4801F02AFE03461A46FB79114686
:100C1C00554A42F82310FB79524A52F82320FB79AB
:100C2C004F4951F823309A4240F08480FB794C4A6A
:100C3C0052F82320FB794C4951F823309A4279D150
:100C4C00FA79FB79474951F822204A4941F8232087
:100C5C00FB79494A52F823300D2B43D00D2B6BDC1A
:100C6C000B2B02D00C2B2DD066E0FB79434A52F8AB
:100C7C0023200132414941F82320FB793F4A52F8A5
:100C8C002330642B0DD1FB793B4A0D2142F8231004
:100C9C00FB793A4A002142F82310FB791846FFF7FA
:100CAC0053FFFB79334A52F82330012B46D1FB79A1
:100CBC00314A0C2142F82310FB79304A002142F8CA
:100CCC0023103BE0FB792B4A52F82330002B37D111
:100CDC00FB79294A0B2142F82310FB791846FFF7C0
:100CEC0033FF2DE0FB79254A52F8232001322349AA
:100CFC0041F82320FB79214A52F82330142B08D1D8
:100D0C00FB791846FFF720FFFB791C4A002142F8BB
:100D1C002310FB79174A52F82330012B12D1FB799F
:100D2C00154A0C2142F82310FB79144A002142F891
:100D3C00231007E000BF06E000BF04E000BF02E0A4
:100D4C0000BF00E000BFFB790133FB71FB79032B83
:100D5C007FF616AF00BF00BF0837BD4680BD00BF91
:100D6C00D4000020E4000020C40000200008014052
:100D7C00000C0140B400002000000020F400002012
:100D8C0080B400AF0B4B1B680B4A13600A4B1A68FC
:100D9C000A4B1B689A4202DC084B01221A60064B74
:100DAC001A68064B1B68D31A054A136000BFBD4670
:100DBC0080BC70471C010020100000202400002083
:100DCC002000002080B400AF074B1B68074A13605B
:100DDC00074B1A68054B1B68D31A064A136000BFF1
:100DEC00BD4680BC704700BF1C01002014000020D1
:100DFC001C0000201800002080B400AF074B1B68BB
:100E0C00074A1360074B1A68054B1B68D31A064A2E
:100E1C00136000BFBD4680BC704700BF1C010020A2
:100E2C00180000201C0000201400002080B400AF2B
:100E3C000B4B1B680B4A13600A4B1A680A4B1B6856
:100E4C009A4202DC084B01221A60064B1A68064BC8
:100E5C001B68D31A054A136000BFBD4680BC70479F
:100E6C001C0100201C000020180000201400002091
:100E7C0080B400AF074B1B68074A1360074B1A6816
:100E8C00054B1B68D31A064A136000BFBD4680BCD5
:100E9C00704700BF1C010020200000201000002023
:100EAC002400002080B400AF074B1B68074A136076
:100EBC00074B1A68054B1B68D31A064A136000BF10
:100ECC00BD4680BC704700BF1C01002024000020E0
:100EDC00100000202000002080B500AF01F01AF9AE
:100EEC0000F026F800F052F900F064F800F024F954
:100EFC0000F0ACF80A4802F063F90021094802F04E
:100F0C0009FA094B01221A60084B02221A60FFF7FA
:100F1C000DFD00F0BBF900F043FE00F085FAF6E79A
:100F2C009C01002054010020140100201801002015
:100F3C0080B590B000AF07F11803282200211846A5
:100F4C0003F04EFD3B1D00221A605A609A60DA6075
:100F5C001A610223BB610123BB621023FB620223D3
:100F6C007B630023BB634FF46013FB6307F118032F
:100F7C00184601F0BBFC0346002B01D000F080F9B1
:100F8C000F237B600223BB600023FB604FF4806364
:100F9C003B6100237B613B1D0221184601F028FFB9
:100FAC000346002B01D000F06BF900BF4037BD4663
:100FBC0080BD000080B586B000AF07F108030022A9
:100FCC001A605A609A60DA603B4600221A605A60D6
:100FDC001D4B4FF080421A601B4B41F63F725A601A
:100FEC00194B00229A60184B4F22DA60164B0022E4
:100FFC001A61154B00229A61134802F091F80346CE
:10100C00002B01D000F03CF94FF48053BB6007F18A
:10101C00080319460C4802F0E5FB0346002B01D0EF
:10102C0000F02EF900233B6000237B603B46194601
:10103C00054802F063FF0346002B01D000F020F9B5
:10104C0000BF1837BD4680BD9C01002080B58EB016
:10105C0000AF07F1280300221A605A609A60DA6028
:10106C0007F1200300221A605A603B1D00221A600F
:10107C005A609A60DA601A615A619A612C4B2D4A57
:10108C001A602B4B40F2E7325A60294B00229A60CF
:10109C00274B3F22DA60264B00221A61244B002298
:1010AC009A61234802F03CF80346002B01D000F073
:1010BC00E7F84FF48053BB6207F1280319461C482C
:1010CC0002F090FB0346002B01D000F0D9F8184831
:1010DC0002F0C8F80346002B01D000F0D1F8002331
:1010EC003B6200237B6207F120031946104802F093
:1010FC0005FF0346002B01D000F0C2F860237B6093
:10110C000023BB600023FB6000237B613B1D00229E
:10111C001946074802F0A8FA0346002B01D000F04C
:10112C00AFF8034800F0AAFA00BF3837BD4680BDBF
:10113C00540100200004004080B500AF114B124A4E
:10114C001A60104B4FF4E1325A600E4B00229A6039
:10115C000C4B0022DA600B4B00221A61094B0C225B
:10116C005A61084B00229A61064B0022DA6105484D
:10117C0002F034FF0346002B01D000F081F800BFD1
:10118C0080BD00BFE40100200044004080B586B063
:10119C0000AF07F1080300221A605A609A60DA6007
:1011AC002E4B9B692D4A43F0040393612B4B9B6997
:1011BC0003F004037B607B68284B9B69274A43F050
:1011CC0008039361254B9B6903F008033B603B6864
:1011DC0000224FF48761224801F057FB00224FF4A4
:1011EC00A061204801F051FB1323BB600023FB607E
:1011FC0000233B6107F1080319461A4801F0AAF9CC
:10120C000123BB600023FB6000233B6107F1080353
:10121C001946134801F09EF94FF48763BB60012314
:10122C00FB6000233B6102237B6107F10803194635
:10123C000B4801F08FF94FF4A063BB600123FB60F6
:10124C0000233B6102237B6107F108031946054823
:10125C0001F080F900BF1837BD4680BD0010024078
:10126C00000C01400008014080B582B000AF7860EE
:10127C0000F01CFBFFF77EFC00BF0837BD4680BDAD
:10128C0080B400AF72B600BFFEE7000080B500AFBF
:10129C00624B1B680B3B032B00F2B58001A252F88A
:1012AC0023F000BFC1120008171300086B130008CD
:1012BC00BF1300080320FFF72DFC594B1B68012BB3
:1012CC0002D1564B01221A600120FFF723FC034682
:1012DC00002B02D000F08AFE9EE00220FFF71AFCE1
:1012EC000346002B00F091804C4B0C221A6000F04E
:1012FC000BFB00F0A1FB00F0F5FB42F2107000F0CC
:10130C00B9FA484B04221A607FE00320FFF702FC75
:10131C00434B1B68002B02D0404B01221A6001206A
:10132C00FFF7F8FB0346002B02D000F05FFE73E0E2
:10133C000220FFF7EFFB0346002B68D0374B0D2242
:10134C001A6000F0F5FA00F057FB00F0B7FB354BD4
:10135C0003221A6042F2107000F08CFA57E003205E
:10136C00FFF7D8FB2E4B1B68002B02D02B4B012216
:10137C001A600120FFF7CEFB0346002B02D000F0D1
:10138C0035FE49E00220FFF7C5FB0346002B40D099
:10139C00224B0E221A6000F0DFFA00F02DFB00F059
:1013AC008DFB204B03221A6042F2107000F062FA9F
:1013BC002FE00320FFF7AEFB194B1B68002B02D06C
:1013CC00164B01221A600120FFF7A4FB0346002BE9
:1013DC0002D000F00BFE1FE00220FFF79BFB034640
:1013EC00002B18D00D4B0B221A6000F08DFA00F078
:1013FC0013FB00F077FB0B4B04221A6042F21070C7
:10140C0000F038FA07E000BF06E000BF04E000BFC0
:10141C0002E000BF00E000BF00BF80BD140100204F
:10142C003401002018010020B0B500AF574B1B68E9
:10143C00042B34D0042B00F3A380022B02D0032BFB
:10144C0007D09DE000F062FB514B1B6800225A63F1
:10145C0099E0504B1B68162B13D04E4B1B68172B67
:10146C000FD04C4B1B68192B0BD04A4B1B68182BFD
:10147C0007D0484B1B68152B03D0464B1B68142B0D
:10148C0006D100F043FB424B1B6800225A637AE002
:10149C0000F014FB3E4B1B6800225A6373E03D4B7B
:1014AC001B68162B13D03B4B1B68172B0FD0394BDB
:1014BC001B68192B0BD0374B1B68182B07D0354BDF
:1014CC001B68152B03D0334B1B68142B06D100F073
:1014DC001DFB2F4B1B6800225A6350E00020FFF7C6
:1014EC0019FB0346002B4DD02A4B1B680B2B03D04A
:1014FC00284B1B680C2B09D1274B4FF47A721A60BE
:10150C00254B1A68224B1B685A6338E0214B1B6829
:10151C00022B03D01F4B1B68032B33D11F4B1B68B3
:10152C001846FEF75FFF04460D461D4B1B68184618
:10153C00FEF758FF02460B4620462946FFF7E6F811
:10154C0002460B46104619464FF00002154BFEF7AB
:10155C00B3FF02460B464FF000001249FEF7F4FDB4
:10156C0002460B4610461946FFF7B8F903460A4ADD
:10157C001360094B1A68064B1B685A6302E001E0C2
:10158C0000BF00E000BF00BFB0BD00BF18010020CD
:10159C0054010020140100202C0100201C0100200B
:1015AC001000002000408F4080B485B000AF154B78
:1015BC009B69144A43F001039361124B9B6903F03E
:1015CC000103BB60BB680F4BDB690E4A43F08053D1
:1015DC00D3610C4BDB6903F080537B607B680A4B57
:1015EC005B68FB60FB6823F0E063FB60FB6843F027
:1015FC000073FB60044AFB68536000BF1437BD46A0
:10160C0080BC7047001002400000014080B584B0DF
:10161C0000AF78607B681B68B3F1804F14D1154B19
:10162C00DB69144A43F00103D361124BDB6903F00D
:10163C000103FB60FB68002200211C2000F0A3FECC
:10164C001C2000F0BCFE10E07B681B680A4A934229
:10165C000BD1084BDB69074A43F00203D361054BFE
:10166C00DB6903F00203BB60BB6800BF1037BD46EB
:10167C0080BD00BF001002400004004080B588B05F
:10168C0000AF786007F1100300221A605A609A606C
:10169C00DA607B681B680F4A934217D10E4B9B692B
:1016AC000D4A43F0040393610B4B9B6903F0040355
:1016BC00FB60FB6840233B6102237B610223FB61DF
:1016CC0007F110031946054800F044FF00BF20370E
:1016DC00BD4680BD000400400010024000080140DF
:1016EC0080B588B000AF786007F1100300221A6053
:1016FC005A609A60DA607B681B681F4A934237D144
:10170C001E4BDB691D4A43F40033D3611B4BDB6971
:10171C0003F40033FB60FB68184B9B69174A43F0DA
:10172C0004039361154B9B6903F00403BB60BB6816
:10173C0004233B6102237B610323FB6107F110034C
:10174C0019460F4800F006FF08233B6100237B611C
:10175C000023BB6107F110031946094800F0FAFE9B
:10176C0000220021262000F00EFE262000F027FE8D
:10177C0000BF2037BD4680BD004400400010024031
:10178C000008014080B400AFFEE780B400AFFEE774
:10179C0080B400AFFEE780B400AFFEE780B400AFCA
:1017AC00FEE780B400AF00BFBD4680BC704780B47C
:1017BC0000AF00BFBD4680BC704780B400AF00BF17
:1017CC00BD4680BC704780B500AF00F0E9FC00BF9F
:1017DC0080BD000080B500AF024801F03DFE00BFA7
:1017EC0080BD00BF9C01002080B500AF024802F014
:1017FC00D5FC00BF80BD00BFE401002080B586B0E1
:10180C0000AF7860144A154BD31A7B617B693B613E
:10181C00134B1B68002B02D1114B124A1A60104B50
:10182C001A687B6813443A699A4207D203F0AEF8FF
:10183C0003460C221A604FF0FF3309E0084B1B687B
:10184C00FB60074B1A687B681344054A1360FB68FE
:10185C0018461837BD4680BD00500020000400001B
:10186C00300100203002002080B400AF00BFBD4624
:10187C0080BC704780B483B000AF78607B68084A46
:10188C0082FB03129210DB17D31A064A1360064B25
:10189C0000221A6000BF0C37BD4680BC704700BFE9
:1018AC00676666663C0100203401002080B400AFFE
:1018BC00114B1B68002B0BDD0F4B1B68013B0E4AB9
:1018CC0013600D4B1B68002B02D10C4B01221A60CC
:1018DC000B4B1B68002B0BDD094B1B68013B084AAB
:1018EC001360074B1B68002B02D1064B01221A60B8
:1018FC0000BFBD4680BC70473C0100203401002075
:10190C00400100203801002080B500AF01224FF4C7
:10191C008061054800F0B9FF00220821034800F05F
:10192C00B4FF00BF80BD00BF00080140000C0140A7
:10193C0080B500AF00224FF48061054800F0A5FF90
:10194C0001220821034800F0A0FF00BF80BD00BFAA
:10195C0000080140000C014080B500AF01224FF49B
:10196C008061054800F091FF01220821034800F036
:10197C008CFF00BF80BD00BF00080140000C01407F
:10198C0080B500AF00224FF48061054800F07DFF68
:10199C0000220821034800F078FF00BF80BD00BF83
:1019AC0000080140000C014080B500AF4FF480618D
:1019BC00024800F082FF00BF80BD00BF000801405C
:1019CC0080B500AF0821024800F077FF00BF80BD52
:1019DC00000C014080B500AF4FF48061044800F06A
:1019EC006CFF0821034800F068FF00BF80BD00BFFA
:1019FC0000080140000C014080B500AF01222021FD
:101A0C00044800F042FF00221021024800F03DFF84
:101A1C0000BF80BD000C014080B500AF002220212A
:101A2C00044800F032FF01221021024800F02DFF83
:101A3C0000BF80BD000C014080B500AF0122202109
:101A4C00044800F022FF01221021024800F01DFF83
:101A5C0000BF80BD000C014080B500AF00222021EA
:101A6C00044800F012FF00221021024800F00DFF84
:101A7C0000BF80BD000C014080B500AF20210248A2
:101A8C0000F01BFF00BF80BD000C014080B500AF13
:101A9C001021024800F011FF00BF80BD000C014076
:101AAC0080B500AF2021044800F007FF1021024848
:101ABC0000F003FF00BF80BD000C014080B500AFFB
:101ACC0001224FF48061054800F0DFFE00224FF444
:101ADC008071034800F0D9FE00BF80BD000C0140AE
:101AEC000008014080B500AF00224FF4806105482A
:101AFC0000F0CBFE01224FF48071034800F0C5FECC
:101B0C0000BF80BD000C01400008014080B500AF53
:101B1C0000224FF48061054800F0B7FE00224FF41C
:101B2C008071034800F0B1FE00BF80BD000C014085
:101B3C000008014080B582B000AF144B1B68144AFA
:101B4C0082FB03129210DB17D31A7B600F4B1A68BF
:101B5C000F4B83FB02139910D317C91A0B469B002A
:101B6C000B445B00D31A3B603B687A6809490A480E
:101B7C0002F03EFF03469AB24FF47A7306490748C7
:101B8C0002F079FA00BF0837BD4680BD1C01002069
:101B9C00676666660853000820010020E4010020F7
:101BAC0080B500AFB84B1B68143B052B00F2DF81EE
:101BBC0001A252F823F000BFDD1B00086F1C0008C7
:101BCC00011D0008971D00082D1E0008E71E0008C7
:101BDC00AE4B1B68002B05D04FF47A70FFF74AFE12
:101BEC00FFF7E2FE0120FEF795FF0346002B02D023
:101BFC0000F01AFAC8E10020FEF78CFF0220FEF775
:101C0C0089FF0346002B16D00320FEF783FF9E4B63
:101C1C0015221A604FF47A70FFF72CFEFFF7B0F81C
:101C2C009B4B1B689B4A1360FFF784FFFFF7A8FED2
:101C3C00FFF712FFA8E10320FEF76CFF0346002B11
:101C4C0000F09781934B1B680133924A1360914BC0
:101C5C001B683C2B02DD8F4B02221A60FFF76AFFD8
:101C6C0087E18A4B1B68002B05D04FF47A70FFF785
:101C7C0001FEFFF701FF0120FEF74CFF0346002B8E
:101C8C0002D000F0D1F97FE10020FEF743FF0220E3
:101C9C00FEF740FF0346002B16D00320FEF73AFF59
:101CAC00794B16221A604FF47A70FFF7E3FDFFF7B9
:101CBC00BDF8794B1B68774A1360FFF73BFFFFF7C2
:101CCC005FFEFFF7C9FE5FE10320FEF723FF03462B
:101CDC00002B00F050816F4B1B6801336D4A136071
:101CEC006C4B1B683C2B02DD6A4B02221A60FFF71F
:101CFC0021FF40E1654B1B68002B05D04FF47A7037
:101D0C00FFF7B8FDFFF75CFE0120FEF703FF03466B
:101D1C00002B02D000F088F936E10020FEF7FAFE25
:101D2C000220FEF7F7FE0346002B16D00320FEF729
:101D3C00F1FE554B17221A604FF47A70FFF79AFD9B
:101D4C00FFF740F8554B1B68524A1360FFF7F2FE41
:101D5C00FFF716FEFFF780FE16E10320FEF7DAFE12
:101D6C000346002B00F009814A4B1B680133494A9A
:101D7C001360474B1A68474B1B689A4202DC454B71
:101D8C0001221A60FFF7D6FEF7E0404B1B68002BD0
:101D9C0005D04FF47A70FFF76DFDFFF777FE012049
:101DAC00FEF7B8FE0346002B02D000F03DF9EBE045
:101DBC000020FEF7AFFE0220FEF7ACFE0346002B20
:101DCC0016D00320FEF7A6FE2F4B18221A604FF4F4
:101DDC007A70FFF74FFDFFF74BF8314B1B682D4A1C
:101DEC001360FFF7A7FEFFF7CBFDFFF735FECBE047
:101DFC000320FEF78FFE0346002B00F0C080254B1E
:101E0C001B680133234A1360264B1A68214B1B684D
:101E1C009A4202DC1F4B01221A60FFF78BFEAEE0E8
:101E2C001A4B1B68002B05D04FF47A70FFF722FD7C
:101E3C00FFF7D0FD0120FEF76DFE0346002B02D00C
:101E4C0000F0F2F8A0E00020FEF764FE0220FEF79E
:101E5C0061FE0346002B29D00320FEF75BFE0A4BE4
:101E6C0019221A604FF47A70FFF704FDFEF7C4FFD5
:101E7C000D4B1B68074A1360FFF75CFEFFF780FDF4
:101E8C00FFF7EAFD80E000BF1401002034010020C0
:101E9C001C0000201C010020140000202000002049
:101EAC001800002010000020240000200320FEF762
:101EBC0031FE0346002B64D0344B1B680133334A8C
:101ECC001360334B1A68314B1B689A4202DC2F4B60
:101EDC0001221A60FFF72EFE53E02E4B1B68002BDD
:101EEC0005D04FF47A70FFF7C5FCFFF7D9FD012040
:101EFC00FEF710FE0346002B02D000F095F843E0ED
:101F0C000020FEF707FE0220FEF704FE0346002B1E
:101F1C0016D00320FEF7FEFD1F4B14221A604FF45F
:101F2C007A70FFF7A7FCFEF7BDFF1C4B1B68174A26
:101F3C001360FFF7FFFDFFF723FDFFF78DFD23E097
:101F4C000320FEF7E7FD0346002B1CD00F4B1B684C
:101F5C0001330E4A1360114B1A680C4B1B689A42E2
:101F6C0002DC0A4B01221A60FFF7E4FD0BE000BF14
:101F7C000AE000BF08E000BF06E000BF04E000BFBD
:101F8C0002E000BF00E000BF00BF80BD1C010020CC
:101F9C001C0000203401002014010020100000203F
:101FAC0080B500AF0220FEF7B5FD0320FEF7B2FDB1
:101FBC000B4B0B221A60FFF7A7FCFFF72DFDFFF769
:101FCC0091FD084B04221A6042F21070FFF752FC8C
:101FDC00054B3C221A60FFF7ADFD00BF80BD00BF72
:101FEC0014010020180100201C01002080B500AF56
:101FFC000220FEF78FFD094B14221A604FF47A7001
:10200C00FFF738FC064B1B68064A1360FFF792FD7E
:10201C00FFF7B6FCFFF720FD00BF80BD14010020C8
:10202C00100000201C01002080B500AF0220FEF73C
:10203C0071FD0320FEF76EFD1F4B1B68143B052B37
:10204C0020D801A252F823F06D200008732000085C
:10205C00792000087F200008852000088B200008CC
:10206C00FEF78EFE0FE0FEF7E1FE0CE0FEF7AAFE97
:10207C0009E0FEF7FDFE06E0FEF7BEFE03E0FEF70C
:10208C0011FF00E000BF0C4B02221A604FF47A7073
:10209C00FFF7F0FB094B1B68094A1360FFF74AFD79
:1020AC00FFF732FCFFF7B8FCFFF71CFD054B0422D1
:1020BC001A6000BF80BD00BF14010020100000207A
:1020CC001C010020180100200C480D490D4A00236A
:1020DC0002E0D458C4500433C4188C42F9D30A4AD1
:1020EC000A4C002301E013600432A242FBD3FFF739
:1020FC00BBFB02F051FCFEF7EFFE70470000002026
:10210C00980000207C530008980000202C0200202E
:10211C00FEE7000080B500AF084B1B68074A43F090
:10212C0010031360032000F023F90F2000F008F8CF
:10213C00FFF73AFA0023184680BD00BF002002408A
:10214C0080B582B000AF7860124B1A68124B1B78C6
:10215C0019464FF47A73B3FBF1F3B2FBF3F3184661
:10216C0000F03BF90346002B01D001230EE07B6805
:10217C000F2B0AD8002279684FF0FF3000F003F9DA
:10218C00064A7B681360002300E0012318460837D9
:10219C00BD4680BD28000020300000202C0000200F
:1021AC0080B400AF054B1B781A46054B1B681344D3
:1021BC00034A136000BFBD4680BC7047300000204E
:1021CC002802002080B400AF024B1B681846BD46A5
:1021DC0080BC70472802002080B485B000AF7860C6
:1021EC007B6803F00703FB600C4BDB68BB60BA68D1
:1021FC004FF6FF031340BB60FB681A02BB68134326
:10220C0043F0BF6343F40033BB60044ABB68D36044
:10221C0000BF1437BD4680BC704700BF00ED00E026
:10222C0080B400AF044BDB681B0A03F007031846AD
:10223C00BD4680BC704700BF00ED00E080B483B0A9
:10224C0000AF0346FB7197F90730002B0BDBFB79D2
:10225C0003F01F02064997F907305B09012000FAC9
:10226C0002F241F8232000BF0C37BD4680BC7047FA
:10227C0000E100E080B483B000AF03463960FB712D
:10228C0097F90730002B0ADB3B68DAB20C4997F957
:10229C0007301201D2B20B4483F800230AE03B68EA
:1022AC00DAB20849FB7903F00F03043B1201D2B2F6
:1022BC000B441A7600BF0C37BD4680BC704700BF7C
:1022CC0000E100E000ED00E080B489B000AFF86000
:1022DC00B9607A60FB6803F00703FB61FB69C3F12B
:1022EC000703042B28BF0423BB61FB690433062BB3
:1022FC0002D9FB69033B00E000237B614FF0FF3206
:10230C00BB6902FA03F3DA43BB681A407B699A4053
:10231C004FF0FF317B6901FA03F3D9437B680B4023
:10232C00134318462437BD4680BC704780B582B035
:10233C0000AF78607B68013BB3F1807F01D3012350
:10234C000FE00A4A7B68013B53600F214FF0FF30CE
:10235C00FFF790FF054B00229A60044B07221A608E
:10236C00002318460837BD4680BD00BF10E000E0D2
:10237C0080B582B000AF78607868FFF72DFF00BFA2
:10238C000837BD4680BD80B586B000AF0346B96046
:10239C007A60FB7300237B61FFF742FF78617A68F8
:1023AC00B9687869FFF790FF024697F90F3011462C
:1023BC001846FFF75FFF00BF1837BD4680BD80B5DC
:1023CC0082B000AF0346FB7197F907301846FFF750
:1023DC0035FF00BF0837BD4680BD80B582B000AF69
:1023EC0078607868FFF7A2FF034618460837BD46A9
:1023FC0080BD80B485B000AF78600023FB737B6830
:10240C0093F82130022B08D07B6804229A637B68F6
:10241C00002283F82020012320E07B681B681A68C7
:10242C007B681B6822F00E021A607B681B681A68B6
:10243C007B681B6822F001021A607B681A6C7B684F
:10244C00DB6B012101FA02F25A607B68012283F8EE
:10245C0021207B68002283F82020FB7B1846143750
:10246C00BD4680BC7047000080B584B000AF78607A
:10247C000023FB737B6893F82130022B05D07B681B
:10248C0004229A630123FB7351E07B681B681A6872
:10249C007B681B6822F00E021A607B681B681A6846
:1024AC007B681B6822F001021A607B681B68224A59
:1024BC00934229D07B681B68204A934222D07B68C8
:1024CC001B681F4A93421AD07B681B681D4A9342B3
:1024DC0012D07B681B681C4A93420AD07B681B682D
:1024EC001A4A934202D14FF480130EE04FF08073DE
:1024FC000BE04FF4803308E04FF4805305E04FF4C9
:10250C00807302E0102300E00123114A53607B68C2
:10251C00012283F821207B68002283F820207B682D
:10252C005B6B002B03D07B685B6B78689847FB7BFD
:10253C0018461037BD4680BD080002401C00024002
:10254C003000024044000240580002406C0002403F
:10255C000000024080B48BB000AF7860396000237B
:10256C007B6200233B6269E101227B6A02FA03F37E
:10257C00FB613B681B68FA691340BB61BA69FB6974
:10258C009A4240F058813B685B689A4A93425ED00D
:10259C00984A934275D8984A934258D0964A934297
:1025AC006FD8964A934252D0944A934269D8944A2F
:1025BC0093424CD0924A934263D8924A934246D06B
:1025CC00904A93425DD8122B2AD8122B59D801A2CB
:1025DC0052F823F05B260008352600084726000831
:1025EC00892600088F2600088F2600088F260008F1
:1025FC008F2600088F2600088F2600088F260008DB
:10260C008F2600088F2600088F2600088F260008CA
:10261C008F2600088F2600083D260008512600084A
:10262C00794A934213D02CE03B68DB683B6229E08B
:10263C003B68DB6804333B6224E03B68DB680833AF
:10264C003B621FE03B68DB680C333B621AE03B6883
:10265C009B68002B02D104233B6213E03B689B6810
:10266C00012B05D108233B627B68FA691A6109E0EA
:10267C0008233B627B68FA695A6103E000233B62E2
:10268C0000E000BFBB69FF2B01D87B6801E07B68D1
:10269C0004337B61BB69FF2B02D87B6A9B0002E091
:1026AC007B6A083B9B003B617B691A680F213B6985
:1026BC0001FA03F3DB431A40396A3B6901FA03F36D
:1026CC001A437B691A603B685B6803F08053002BEC
:1026DC0000F0B1804D4B9B694C4A43F00103936170
:1026EC004A4B9B6903F00103BB60BB68484A7B6A99
:1026FC009B08023352F82330FB607B6A03F0030320
:10270C009B000F2202FA03F3DB43FA681340FB60D1
:10271C007B68404A934213D07B683F4A93420DD06A
:10272C007B683E4A934207D07B683D4A934201D175
:10273C00032306E0042304E0022302E0012300E06B
:10274C0000237A6A02F0030292009340FA68134362
:10275C00FB602F497B6A9B080233FA6841F82320FF
:10276C003B685B6803F48033002B06D02D4B1A6852
:10277C002C49BB6913430B6006E02A4B1A68BB69F2
:10278C00DB43284913400B603B685B6803F4003360
:10279C00002B06D0234B5A682249BB6913434B606C
:1027AC0006E0204B5A68BB69DB431E4913404B6063
:1027BC003B685B6803F48013002B06D0194B9A68B6
:1027CC001849BB6913438B6006E0164B9A68BB69CA
:1027DC00DB43144913408B603B685B6803F40013C4
:1027EC00002B21D00F4BDA680E49BB691343CB6029
:1027FC0021E000BF00003210000031100000221058
:10280C0000002110000012100000111000100240F6
:10281C000000014000080140000C01400010014084
:10282C0000140140000401400B4BDA68BB69DB4328
:10283C0009491340CB607B6A01337B623B681A68A1
:10284C007B6A22FA03F3002B7FF48EAE00BF00BF2D
:10285C002C37BD4680BC70470004014080B485B065
:10286C0000AF78600B467B807B689A687B8813404E
:10287C00002B02D00123FB7301E00023FB73FB7BD5
:10288C0018461437BD4680BC704780B483B000AF87
:10289C0078600B467B8013467B707B78002B03D0D3
:1028AC007A887B681A6103E07B881A047B681A615A
:1028BC0000BF0C37BD4680BC704780B485B000AFFC
:1028CC0078600B467B807B68DB68FB607A88FB68F2
:1028DC0013401A04FB68D9437B880B401A437B686E
:1028EC001A6100BF1437BD4680BC704780B586B0F6
:1028FC0000AF78607B68002B01D1012372E27B680A
:10290C001B6803F00103002B00F08780924B5B687F
:10291C0003F00C03042B0CD08F4B5B6803F00C03FF
:10292C00082B12D18C4B5B6803F48033B3F5803FDA
:10293C000BD1894B1B6803F40033002B6CD07B68E4
:10294C005B68002B68D101234CE27B685B68B3F5B4
:10295C00803F06D1804B1B687F4A43F48033136061
:10296C002EE07B685B68002B0CD17B4B1B687A4A92
:10297C0023F480331360784B1B68774A23F480234D
:10298C0013601DE07B685B68B3F5A02F0CD1724B14
:10299C001B68714A43F4802313606F4B1B686E4AAB
:1029AC0043F4803313600BE06B4B1B686A4A23F4CF
:1029BC0080331360684B1B68674A23F480231360D1
:1029CC007B685B68002B13D0FFF7FCFB386108E0D9
:1029DC00FFF7F8FB02463B69D31A642B01D903239A
:1029EC0000E25D4B1B6803F40033002BF0D014E0C5
:1029FC00FFF7E8FB386108E0FFF7E4FB02463B69B0
:102A0C00D31A642B01D90323ECE1534B1B6803F459
:102A1C000033002BF0D100E000BF7B681B6803F093
:102A2C000203002B63D04C4B5B6803F00C03002BB0
:102A3C000BD0494B5B6803F00C03082B1CD1464BA5
:102A4C005B6803F48033002B16D1434B1B6803F0F7
:102A5C000203002B05D07B681B69012B01D00123DD
:102A6C00C0E13D4B1B6823F0F8027B685B69DB001F
:102A7C00394913430B603AE07B681B69002B20D06B
:102A8C00364B01221A60FFF79DFB386108E0FFF717
:102A9C0099FB02463B69D31A022B01D90323A1E10E
:102AAC002D4B1B6803F00203002BF0D02A4B1B6844
:102ABC0023F0F8027B685B69DB00274913430B604A
:102ACC0015E0264B00221A60FFF77CFB386108E00A
:102ADC00FFF778FB02463B69D31A022B01D903237B
:102AEC0080E11D4B1B6803F00203002BF0D17B68C7
:102AFC001B6803F00803002B3AD07B689B69002B02
:102B0C0019D0174B01221A60FFF75CFB386108E003
:102B1C00FFF758FB02463B69D31A022B01D903235A
:102B2C0060E10D4B5B6A03F00203002BF0D0012037
:102B3C0000F0D8FA1CE00A4B00221A60FFF742FBA7
:102B4C0038610FE0FFF73EFB02463B69D31A022BBC
:102B5C0008D9032346E100BF0010024000004242A6
:102B6C0080044242924B5B6A03F00203002BE9D1D2
:102B7C007B681B6803F00403002B00F0A680002385
:102B8C00FB758B4BDB6903F08053002B0DD1884B0D
:102B9C00DB69874A43F08053D361854BDB6903F0D3
:102BAC008053BB60BB680123FB75824B1B6803F42D
:102BBC008073002B18D17F4B1B687E4A43F48073C3
:102BCC001360FFF7FFFA386108E0FFF7FBFA0246E3
:102BDC003B69D31A642B01D9032303E1754B1B68A2
:102BEC0003F48073002BF0D07B68DB68012B06D1DB
:102BFC006F4B1B6A6E4A43F0010313622DE07B6836
:102C0C00DB68002B0CD16A4B1B6A694A23F0010369
:102C1C001362674B1B6A664A23F0040313621CE0C1
:102C2C007B68DB68052B0CD1614B1B6A604A43F057
:102C3C00040313625E4B1B6A5D4A43F0010313628B
:102C4C000BE05B4B1B6A5A4A23F001031362584B8F
:102C5C001B6A574A23F0040313627B68DB68002B62
:102C6C0015D0FFF7AFFA38610AE0FFF7ABFA02466E
:102C7C003B69D31A41F28832934201D90323B1E064
:102C8C004B4B1B6A03F00203002BEED014E0FFF752
:102C9C0099FA38610AE0FFF795FA02463B69D31AB4
:102CAC0041F28832934201D903239BE0404B1B6ACB
:102CBC0003F00203002BEED1FB7D012B05D13C4B25
:102CCC00DB693B4A23F08053D3617B68DB69002BC3
:102CDC0000F08780364B5B6803F00C03082B61D047
:102CEC007B68DB69022B46D1334B00221A60FFF75D
:102CFC0069FA386108E0FFF765FA02463B69D31AB6
:102D0C00022B01D903236DE0294B1B6803F00073E0
:102D1C00002BF0D17B681B6AB3F5803F08D1244BA4
:102D2C005B6823F400327B689B68214913434B603A
:102D3C001F4B5B6823F474127B68196A7B685B6AAF
:102D4C000B431B4913434B601B4B01221A60FFF7CB
:102D5C0039FA386108E0FFF735FA02463B69D31AB5
:102D6C00022B01D903233DE0114B1B6803F00073C8
:102D7C00002BF0D035E0104B00221A60FFF722FA3E
:102D8C00386108E0FFF71EFA02463B69D31A022BA2
:102D9C0001D9032326E0064B1B6803F00073002BBC
:102DAC00F0D11EE07B68DB69012B07D1012319E010
:102DBC000010024000700040600042420B4B5B6808
:102DCC00FB60FB6803F480327B681B6A9A4206D175
:102DDC00FB6803F470127B685B6A9A4201D0012392
:102DEC0000E0002318461837BD4680BD0010024095
:102DFC0080B584B000AF786039607B68002B01D15E
:102E0C000123D0E06A4B1B6803F007033A689A422F
:102E1C0010D9674B1B6823F0070265493B681343C5
:102E2C000B60634B1B6803F007033A689A4201D0AE
:102E3C000123B8E07B681B6803F00203002B20D051
:102E4C007B681B6803F00403002B05D0594B5B68AF
:102E5C00584A43F4E06353607B681B6803F0080333
:102E6C00002B05D0534B5B68524A43F460535360BC
:102E7C00504B5B6823F0F0027B689B684D49134311
:102E8C004B607B681B6803F00103002B40D07B6810
:102E9C005B68012B07D1474B1B6803F40033002BF5
:102EAC0015D101237FE07B685B68022B07D1414B76
:102EBC001B6803F00073002B09D1012373E03D4B19
:102ECC001B6803F00203002B01D101236BE0394B8B
:102EDC005B6823F003027B685B68364913434B60E5
:102EEC00FFF770F9F8600AE0FFF76CF90246FB682F
:102EFC00D31A41F28832934201D9032353E02D4B6C
:102F0C005B6803F00C027B685B689B009A42EBD118
:102F1C00274B1B6803F007033A689A4210D2244BE4
:102F2C001B6823F0070222493B6813430B60204BBC
:102F3C001B6803F007033A689A4201D0012332E080
:102F4C007B681B6803F00403002B08D0194B5B68EB
:102F5C0023F4E0627B68DB68164913434B607B68A3
:102F6C001B6803F00803002B09D0124B5B6823F499
:102F7C0060527B681B69DB000E4913434B6000F009
:102F8C0021F802460B4B5B681B0903F00F030A493F
:102F9C00CB5C22FA03F3094A1360094B1B681846F1
:102FAC00FFF7CEF8002318461037BD4680BD00BF92
:102FBC000020024000100240285300082800002086
:102FCC002C00002090B48AB000AF294B3C1D0FCBD5
:102FDC0084E80F0040F201233B800023FB610023B7
:102FEC00BB6100237B6200237B6100233B62214B8E
:102FFC005B68FB61FB6903F00C03042B02D0082B0C
:10300C0003D02BE01C4B3B622BE0FB699B0C03F0C9
:10301C000F0328333B4413F8243C7B61FB6903F416
:10302C008033002B12D0134B5B685B0C03F0010355
:10303C0028333B4413F8283CBB617B690E4A03FBE5
:10304C0002F2BB69B2FBF3F37B6204E07B690B4ACF
:10305C0002FB03F37B627B6A3B6202E0064B3B6242
:10306C0000BF3B6A18462837BD4690BC704700BF6E
:10307C00185300080010024000127A0000093D00AD
:10308C0080B400AF024B1B681846BD4680BC70472D
:10309C002800002080B500AFFFF7F2FF0246054B79
:1030AC005B681B0A03F007030349CB5C22FA03F3AA
:1030BC00184680BD001002403853000880B500AFA0
:1030CC00FFF7DEFF0246054B5B68DB0A03F00703E4
:1030DC000349CB5C22FA03F3184680BD0010024072
:1030EC003853000880B485B000AF78600A4B1B6879
:1030FC000A4AA2FB03235B0A7A6802FB03F3FB6018
:10310C0000BFFB685A1EFA60002BF9D100BF00BF4C
:10311C001437BD4680BC704728000020D34D621088
:10312C0080B582B000AF78607B68002B01D10123A1
:10313C0041E07B6893F83D30DBB2002B06D17B6815
:10314C00002283F83C207868FEF760FA7B68022244
:10315C0083F83D207B681A687B6804331946104657
:10316C0000F028FC7B68012283F846207B68012252
:10317C0083F83E207B68012283F83F207B68012284
:10318C0083F840207B68012283F841207B68012270
:10319C0083F842207B68012283F843207B6801225C
:1031AC0083F844207B68012283F845207B68012248
:1031BC0083F83D20002318460837BD4680BD00002B
:1031CC0080B485B000AF78607B6893F83D30DBB29B
:1031DC00012B01D001233AE07B68022283F83D20C9
:1031EC007B681B68DA687B681B6842F00102DA6056
:1031FC007B681B68184A93420ED07B681B68B3F13E
:10320C00804F09D07B681B68144A934204D07B68BA
:10321C001B68134A934211D17B681B689B6803F0AF
:10322C000703FB60FB68062B10D07B681B681A68D1
:10323C007B681B6842F001021A6007E07B681B6820
:10324C001A687B681B6842F001021A60002318465A
:10325C001437BD4680BC7047002C01400004004070
:10326C000008004080B582B000AF78607B68002B0E
:10327C0001D1012341E07B6893F83D30DBB2002B98
:10328C0006D17B68002283F83C20786800F039F87E
:10329C007B68022283F83D207B681A687B680433C4
:1032AC001946104600F086FB7B68012283F8462005
:1032BC007B68012283F83E207B68012283F83F2043
:1032CC007B68012283F840207B68012283F841202F
:1032DC007B68012283F842207B68012283F843201B
:1032EC007B68012283F844207B68012283F8452007
:1032FC007B68012283F83D20002318460837BD4621
:10330C0080BD80B483B000AF786000BF0C37BD4681
:10331C0080BC704780B584B000AF786039603B6882
:10332C00002B09D17B6893F83E30DBB2012B14BF24
:10333C0001230023DBB222E03B68042B09D17B681C
:10334C0093F83F30DBB2012B14BF01230023DBB217
:10335C0015E03B68082B09D17B6893F84030DBB251
:10336C00012B14BF01230023DBB208E07B6893F828
:10337C004130DBB2012B14BF01230023DBB2002B45
:10338C0001D001235EE03B68002B04D17B68022254
:10339C0083F83E2013E03B68042B04D17B680222A7
:1033AC0083F83F200BE03B68082B04D17B6802229A
:1033BC0083F8402003E07B68022283F841207B687D
:1033CC001B6801223968184600F074FD7B681B6885
:1033DC001E4A934207D17B681B685A6C7B681B683A
:1033EC0042F400425A647B681B68184A93420ED020
:1033FC007B681B68B3F1804F09D07B681B68144A4B
:10340C00934204D07B681B68124A934211D17B68AB
:10341C001B689B6803F00703FB60FB68062B10D04E
:10342C007B681B681A687B681B6842F001021A6093
:10343C0007E07B681B681A687B681B6842F0010216
:10344C001A60002318461037BD4680BD002C014081
:10345C00000400400008004080B582B000AF7860E6
:10346C007B681B681B6903F00203022B22D17B686B
:10347C001B68DB6803F00203022B1BD17B681B6803
:10348C006FF002021A617B6801221A777B681B6855
:10349C009B6903F00303002B03D0786800F06FFAEC
:1034AC0005E0786800F062FA786800F071FA7B68E1
:1034BC0000221A777B681B681B6903F00403042B3A
:1034CC0022D17B681B68DB6803F00403042B1BD13F
:1034DC007B681B686FF004021A617B6802221A7702
:1034EC007B681B689B6903F44073002B03D07868DE
:1034FC0000F045FA05E0786800F038FA786800F0DA
:10350C0047FA7B6800221A777B681B681B6903F0FB
:10351C000803082B22D17B681B68DB6803F00803C7
:10352C00082B1BD17B681B686FF008021A617B6843
:10353C0004221A777B681B68DB6903F00303002BFA
:10354C0003D0786800F01BFA05E0786800F00EFAFA
:10355C00786800F01DFA7B6800221A777B681B687C
:10356C001B6903F01003102B22D17B681B68DB68EE
:10357C0003F01003102B1BD17B681B686FF010023B
:10358C001A617B6808221A777B681B68DB6903F475
:10359C004073002B03D0786800F0F1F905E07868EF
:1035AC0000F0E4F9786800F0F3F97B6800221A77F0
:1035BC007B681B681B6903F00103012B0ED17B6830
:1035CC001B68DB6803F00103012B07D17B681B68C8
:1035DC006FF001021A617868FDF746FE7B681B6884
:1035EC001B6903F08003802B0ED17B681B68DB68A2
:1035FC0003F08003802B07D17B681B686FF080027F
:10360C001A61786800F0E1FC7B681B681B6903F0A9
:10361C004003402B0ED17B681B68DB6803F0400332
:10362C00402B07D17B681B686FF040021A617868E9
:10363C0000F0B7F97B681B681B6903F02003202B93
:10364C000ED17B681B68DB6803F02003202B07D1AD
:10365C007B681B686FF020021A61786800F0ACFC84
:10366C0000BF0837BD4680BD80B584B000AFF860A0
:10367C00B9607A60FB6893F83C30012B01D10223CE
:10368C00ACE0FB68012283F83C207B680C2B00F239
:10369C009F8001A252F823F0D9360008DD370008CC
:1036AC00DD370008DD37000819370008DD37000862
:1036BC00DD370008DD3700085B370008DD37000810
:1036CC00DD370008DD3700089B370008FB681B68F6
:1036DC00B968184600F0D0F9FB681B689A69FB685A
:1036EC001B6842F008029A61FB681B689A69FB68C8
:1036FC001B6822F004029A61FB681B689969BB681D
:10370C001A69FB681B680A439A6162E0FB681B68D4
:10371C00B968184600F016FAFB681B689A69FB68D2
:10372C001B6842F400629A61FB681B689A69FB682B
:10373C001B6822F480629A61FB681B689969BB68FC
:10374C001B691A02FB681B680A439A6141E0FB681B
:10375C001B68B968184600F05FFAFB681B68DA69E9
:10376C00FB681B6842F00802DA61FB681B68DA69C7
:10377C00FB681B6822F00402DA61FB681B68D969DC
:10378C00BB681A69FB681B680A43DA6121E0FB68B5
:10379C001B68B968184600F0A9FAFB681B68DA695F
:1037AC00FB681B6842F40062DA61FB681B68DA692B
:1037BC00FB681B6822F48062DA61FB681B68D969BC
:1037CC00BB681B691A02FB681B680A43DA6100E0DC
:1037DC0000BFFB68002283F83C20002318461037FA
:1037EC00BD4680BD80B584B000AF786039607B6821
:1037FC0093F83C30012B01D10223B3E07B6801220A
:10380C0083F83C207B68022283F83D207B681B6890
:10381C009B68FB60FB6823F07703FB60FB6823F479
:10382C007F43FB607B681B68FA689A603B681B6887
:10383C00B3F5005F3ED0B3F5005F00F28780B3F5BF
:10384C00805F00F08580B3F5805F7FD8702B1AD035
:10385C00702B7BD8602B50D0602B77D8502B3CD062
:10386C00502B73D8402B58D0402B6FD8302B64D0B2
:10387C00302B6BD8202B60D0202B67D8002B5CD042
:10388C00102B5AD062E07B6818683B6899683B68DB
:10389C005A683B68DB6800F0EEFA7B681B689B6833
:1038AC00FB60FB6843F07703FB607B681B68FA687E
:1038BC009A604EE07B6818683B6899683B685A6868
:1038CC003B68DB6800F0D7FA7B681B689A687B68FA
:1038DC001B6842F480429A603BE07B6818683B6846
:1038EC0059683B68DB681A4600F04EFA7B681B6827
:1038FC005021184600F0A5FA2BE07B6818683B684D
:10390C0059683B68DB681A4600F06CFA7B681B68E8
:10391C006021184600F095FA1BE07B6818683B683C
:10392C0059683B68DB681A4600F02EFA7B681B6806
:10393C004021184600F085FA0BE07B681A683B685A
:10394C001B681946104600F07CFA02E000BF00E04C
:10395C0000BF7B68012283F83D207B68002283F83E
:10396C003C20002318461037BD4680BD80B483B080
:10397C0000AF786000BF0C37BD4680BC704780B488
:10398C0083B000AF786000BF0C37BD4680BC704779
:10399C0080B483B000AF786000BF0C37BD4680BCEC
:1039AC00704780B483B000AF786000BF0C37BD4661
:1039BC0080BC704780B485B000AF786039607B689C
:1039CC001B68FB607B68294A93420BD07B68B3F180
:1039DC00804F07D07B68264A934203D07B68254AE8
:1039EC00934208D1FB6823F07003FB603B685B6873
:1039FC00FA681343FB607B681C4A93420BD07B68CC
:103A0C00B3F1804F07D07B68194A934203D07B688F
:103A1C00184A934208D1FB6823F44073FB603B685F
:103A2C00DB68FA681343FB60FB6823F080023B6899
:103A3C005B691343FB607B68FA681A603B689A68A1
:103A4C007B68DA623B681A687B689A627B68074A13
:103A5C00934203D13B681A697B681A637B68012225
:103A6C005A6100BF1437BD4680BC7047002C014022
:103A7C00000400400008004080B487B000AF7860BC
:103A8C0039607B681B6A23F001027B681A627B68D1
:103A9C001B6A7B617B685B683B617B689B69FB6035
:103AAC00FB6823F07003FB60FB6823F00303FB60EF
:103ABC003B681B68FA681343FB607B6923F00203C5
:103ACC007B613B689B687A6913437B617B681C4A0A
:103ADC0093420CD17B6923F008037B613B68DB6864
:103AEC007A6913437B617B6923F004037B617B68F8
:103AFC00134A934211D13B6923F480733B613B69B8
:103B0C0023F400733B613B685B693A6913433B6187
:103B1C003B689B693A6913433B617B683A695A601D
:103B2C007B68FA689A613B685A687B685A637B6861
:103B3C007A691A6200BF1C37BD4680BC704700BF53
:103B4C00002C014080B487B000AF786039607B688E
:103B5C001B6A23F010027B681A627B681B6A7B610C
:103B6C007B685B683B617B689B69FB60FB6823F44B
:103B7C00E043FB60FB6823F44073FB603B681B680D
:103B8C001B02FA681343FB607B6923F020037B6103
:103B9C003B689B681B017A6913437B617B681D4AF8
:103BAC0093420DD17B6923F080037B613B68DB681A
:103BBC001B017A6913437B617B6923F040037B61B2
:103BCC007B68144A934213D13B6923F480633B61B5
:103BDC003B6923F400633B613B685B699B003A697A
:103BEC0013433B613B689B699B003A6913433B6100
:103BFC007B683A695A607B68FA689A613B685A68D4
:103C0C007B689A637B687A691A6200BF1C37BD4671
:103C1C0080BC7047002C014080B487B000AF786046
:103C2C0039607B681B6A23F480727B681A627B683C
:103C3C001B6A7B617B685B683B617B68DB69FB6053
:103C4C00FB6823F07003FB60FB6823F00303FB604D
:103C5C003B681B68FA681343FB607B6923F40073B1
:103C6C007B613B689B681B027A6913437B617B68B1
:103C7C001D4A93420DD17B6923F400637B613B6841
:103C8C00DB681B027A6913437B617B6923F48063D5
:103C9C007B617B68144A934213D13B6923F48053B4
:103CAC003B613B6923F400533B613B685B691B013F
:103CBC003A6913433B613B689B691B013A691343A7
:103CCC003B617B683A695A607B68FA68DA613B68E9
:103CDC005A687B68DA637B687A691A6200BF1C37A2
:103CEC00BD4680BC704700BF002C014080B487B03B
:103CFC0000AF786039607B681B6A23F480527B6864
:103D0C001A627B681B6A3B617B685B687B617B68C2
:103D1C00DB69FB60FB6823F4E043FB60FB6823F486
:103D2C004073FB603B681B681B02FA681343FB6023
:103D3C003B6923F400533B613B689B681B033A6966
:103D4C0013433B617B680F4A934209D17B6923F48F
:103D5C0080437B613B685B699B017A6913437B61A0
:103D6C007B687A695A607B68FA68DA613B685A68E2
:103D7C007B681A647B683A691A6200BF1C37BD46BF
:103D8C0080BC7047002C014080B487B000AFF86055
:103D9C00B9607A60FB681B6A7B61FB681B6A23F065
:103DAC000102FB681A62FB689B693B613B6923F06B
:103DBC00F0033B617B681B013A6913433B617B69F0
:103DCC0023F00A037B617A69BB6813437B61FB6850
:103DDC003A699A61FB687A691A6200BF1C37BD4662
:103DEC0080BC704780B487B000AFF860B9607A606F
:103DFC00FB681B6A23F01002FB681A62FB689B6964
:103E0C007B61FB681B6A3B617B6923F470437B61BC
:103E1C007B681B037A6913437B613B6923F0A00326
:103E2C003B61BB681B013A6913433B61FB687A69D0
:103E3C009A61FB683A691A6200BF1C37BD4680BCA8
:103E4C00704780B485B000AF786039607B689B6840
:103E5C00FB60FB6823F07003FB603A68FB6813435C
:103E6C0043F00703FB607B68FA689A6000BF143765
:103E7C00BD4680BC704780B487B000AFF860B960B5
:103E8C007A603B60FB689B687B617B6923F47F43B2
:103E9C007B613B681A027B681A43BB6813437A69DF
:103EAC0013437B61FB687A699A6000BF1C37BD467F
:103EBC0080BC704780B487B000AFF860B9607A609E
:103ECC00BB6803F01F03012202FA03F37B61FB685A
:103EDC001A6A7B69DB431A40FB681A62FB681A6A30
:103EEC00BB6803F01F03796801FA03F31A43FB68FC
:103EFC001A6200BF1C37BD4680BC704780B485B0C9
:103F0C0000AF786039607B6893F83C30012B01D1AD
:103F1C00022346E07B68012283F83C207B68022266
:103F2C0083F83D207B681B685B68FB607B681B68C3
:103F3C009B68BB60FB6823F07003FB603B681B68ED
:103F4C00FA681343FB607B681B68FA685A607B68ED
:103F5C001B68164A93420ED07B681B68B3F1804FE6
:103F6C0009D07B681B68124A934204D07B681B689B
:103F7C00104A93420CD1BB6823F08003BB603B68B2
:103F8C005B68BA681343BB607B681B68BA689A604D
:103F9C007B68012283F83D207B68002283F83C205B
:103FAC00002318461437BD4680BC7047002C0140D6
:103FBC00000400400008004080B483B000AF78607B
:103FCC0000BF0C37BD4680BC704780B483B000AFD7
:103FDC00786000BF0C37BD4680BC704780B582B09E
:103FEC0000AF78607B68002B01D101233FE07B6838
:103FFC0093F83D30DBB2002B06D17B68002283F8AE
:10400C003C207868FDF76CFB7B68242283F83D200C
:10401C007B681B68DA687B681B6822F40052DA60E4
:10402C00786800F025FC7B681B681A697B681B6844
:10403C0022F490421A617B681B685A697B681B6882
:10404C0022F02A025A617B681B68DA687B681B685D
:10405C0042F40052DA607B6800221A647B682022EA
:10406C0083F83D207B68202283F83E2000231846ED
:10407C000837BD4680BD80B58AB002AFF860B96024
:10408C003B601346FB8000237B61FB6893F83D305B
:10409C00DBB2202B7CD1BB68002B02D0FB88002B21
:1040AC0001D1012375E0FB6893F83C30012B01D161
:1040BC0002236EE0FB68012283F83C20FB6800229F
:1040CC001A64FB68212283F83D20FEF77BF87861A7
:1040DC00FB68FA889A84FB68FA88DA84FB689B6828
:1040EC00B3F5805F08D1FB681B69002B04D100235A
:1040FC00FB61BB68BB6103E0BB68FB610023BB6178
:10410C00FB68002283F83C202AE03B6800937B6923
:10411C0000228021F86800F011FA0346002B01D030
:10412C00032336E0FB69002B0BD1BB691B881A46B5
:10413C00FB681B68C2F308025A60BB690233BB619F
:10414C0007E0FB691A78FB681B685A60FB6901334E
:10415C00FB61FB68DB8C9BB2013B9AB2FB68DA8497
:10416C00FB68DB8C9BB2002BCFD13B6800937B6947
:10417C0000224021F86800F0E1F90346002B01D041
:10418C00032306E0FB68202283F83D20002300E097
:10419C00022318462037BD4680BD000080B58AB08A
:1041AC0000AF78607B681B681B687B627B681B6850
:1041BC00DB683B627B681B685B69FB610023BB614E
:1041CC0000237B617B6A03F00F03BB61BB69002B8F
:1041DC000DD17B6A03F02003002B08D03B6A03F05F
:1041EC002003002B03D0786800F099FA7BE1BB69BF
:1041FC00002B00F0B180FB6903F00103002B05D10B
:10420C003B6A03F49073002B00F0A6807B6A03F0EA
:10421C000103002B0AD03B6A03F48073002B05D0FA
:10422C007B681B6C43F001027B681A647B6A03F0A9
:10423C000403002B0AD0FB6903F00103002B05D00B
:10424C007B681B6C43F002027B681A647B6A03F088
:10425C000203002B0AD0FB6903F00103002B05D0ED
:10426C007B681B6C43F004027B681A647B6A03F066
:10427C000803002B0FD03B6A03F02003002B04D162
:10428C00FB6903F00103002B05D07B681B6C43F02A
:10429C0008027B681A647B681B6C002B00F01E8183
:1042AC007B6A03F02003002B07D03B6A03F020034A
:1042BC00002B02D0786800F032FA7B681B685B69CF
:1042CC0003F04003002B14BF01230023DBB27B61FE
:1042DC007B681B6C03F00803002B02D17B69002B5D
:1042EC0031D0786800F074F97B681B685B6903F067
:1042FC004003002B23D07B681B685A697B681B68C2
:10430C0022F040025A617B689B6B002B13D07B68B8
:10431C009B6B764A5A637B689B6B1846FEF7A4F836
:10432C000346002B16D07B689B6B5B6B7A68926B99
:10433C00104698470EE0786800F0ECF80AE07868D0
:10434C0000F0E8F806E0786800F0E4F87B680022FA
:10435C001A64C3E000BFC1E07B681B6B012B40F00B
:10436C00A1807B6A03F01003002B00F09B803B6A5A
:10437C0003F01003002B00F095800023FB607B689A
:10438C001B681B68FB607B681B685B68FB60FB68D9
:10439C007B681B685B6903F04003002B4ED07B6885
:1043AC009B6B1B685B683B823B8A002B00F0988000
:1043BC007B689B8D3A8A9A4280F092807B683A8A1D
:1043CC00DA857B689B6B9B69202B2BD07B681B68E9
:1043DC00DA687B681B6822F48072DA607B681B6881
:1043EC005A697B681B6822F001025A617B681B6862
:1043FC005A697B681B6822F040025A617B68202254
:10440C0083F83E207B6800221A637B681B68DA689D
:10441C007B681B6822F01002DA607B689B6B184685
:10442C00FDF7E7FF7B689A8D7B68DB8D9BB2D31A17
:10443C009BB21946786800F076F851E07B689A8D4B
:10444C007B68DB8D9BB2D31A7B827B68DB8D9BB246
:10445C00002B47D07B8A002B44D07B681B68DA6822
:10446C007B681B6822F49072DA607B681B685A695F
:10447C007B681B6822F001025A617B68202283F85A
:10448C003E207B6800221A637B681B68DA687B68B5
:10449C001B6822F01002DA607B8A1946786800F0FB
:1044AC0042F81FE07B6A03F08003002B08D03B6AC4
:1044BC0003F08003002B03D0786800F0C9F812E0F9
:1044CC007B6A03F04003002B0DD03B6A03F04003E2
:1044DC00002B08D0786800F00AF904E000BF02E075
:1044EC0000BF00E000BF2837BD4680BD3546000840
:1044FC0080B483B000AF786000BF0C37BD4680BC81
:10450C00704780B483B000AF786000BF0C37BD46F5
:10451C0080BC704780B483B000AF786000BF0C37AC
:10452C00BD4680BC704780B483B000AF78600B464A
:10453C007B8000BF0C37BD4680BC704780B584B013
:10454C0000AFF860B9603B601346FB712CE0BB69AF
:10455C00B3F1FF3F28D0BB69002B07D0FDF732FE2B
:10456C0002463B68D31ABA699A421DD2FB681B6893
:10457C00DA68FB681B6822F4D072DA60FB681B688F
:10458C005A69FB681B6822F001025A61FB68202201
:10459C0083F83D20FB68202283F83E20FB68002234
:1045AC0083F83C2003230FE0FB681B681A68BB6888
:1045BC001340BA689A420CBF01230023DBB21A469F
:1045CC00FB799A42C3D0002318461037BD4680BDF4
:1045DC0080B483B000AF78607B681B68DA687B6856
:1045EC001B6822F49072DA607B681B685A697B68DE
:1045FC001B6822F001025A617B681B6B012B07D1EF
:10460C007B681B68DA687B681B6822F01002DA6032
:10461C007B68202283F83E207B6800221A6300BF4F
:10462C000C37BD4680BC704780B584B000AF786055
:10463C007B685B6AFB60FB680022DA85FB68002202
:10464C00DA84F868FFF766FF00BF1037BD4680BDFF
:10465C0080B485B000AF78607B6893F83D30DBB2F6
:10466C00212B3ED17B689B68B3F5805F14D17B68AE
:10467C001B69002B10D17B681B6AFB60FB681B88D5
:10468C001A467B681B68C2F308025A607B681B6A77
:10469C009A1C7B681A6208E07B681B6A591C7A6852
:1046AC0011621A787B681B685A607B68DB8C9BB242
:1046BC00013B9BB27A681946D184002B0FD17B68E1
:1046CC001B68DA687B681B6822F08002DA607B6802
:1046DC001B68DA687B681B6842F04002DA600023D2
:1046EC0000E0022318461437BD4680BC704780B5E5
:1046FC0082B000AF78607B681B68DA687B681B68E7
:10470C0022F04002DA607B68202283F83D20786832
:10471C00FFF7EEFE002318460837BD4680BD80B576
:10472C0086B000AF78607B6893F83E30DBB2222B0A
:10473C0040F099807B689B68B3F5805F17D17B68EC
:10474C001B69002B13D100237B617B689B6A3B6147
:10475C007B681B685B689BB2C3F308039AB23B6926
:10476C001A807B689B6A9A1C7B689A6226E07B683D
:10477C009B6A7B6100233B617B689B68B3F5805F20
:10478C0007D07B689B68002B0AD17B681B69002BC8
:10479C0006D17B681B685B68DAB27B691A7008E02B
:1047AC007B681B685B68DBB203F07F03DAB27B6962
:1047BC001A707B689B6A5A1C7B689A627B68DB8DDB
:1047CC009BB2013B9BB27A681946D185002B48D12C
:1047DC007B681B68DA687B681B6822F02002DA6051
:1047EC007B681B68DA687B681B6822F48072DA606D
:1047FC007B681B685A697B681B6822F001025A614E
:10480C007B68202283F83E207B681B6B012B23D115
:10481C007B6800221A637B681B68DA687B681B68FC
:10482C0022F01002DA607B681B681B6803F010032F
:10483C00102B0AD10023FB607B681B681B68FB6094
:10484C007B681B685B68FB60FB687B689B8D19460B
:10485C007868FFF768FE02E07868FFF752FE0023E5
:10486C0002E0002300E0022318461837BD4680BD45
:10487C0080B584B000AF78607B681B681B6923F43B
:10488C0040517B68DA687B681B680A431A617B6855
:10489C009A687B681B691A437B685B691343BB602E
:1048AC007B681B68DB6823F4B05323F00C037A6835
:1048BC001268B9680B43D3607B681B685B6923F48F
:1048CC0040717B689A697B681B680A435A617B68F4
:1048DC001B682C4A934203D1FEF7F0FBF86002E010
:1048EC00FEF7D8FBF860FA6813469B0013449A0055
:1048FC001A447B685B689B00B2FBF3F3224AA2FB71
:10490C0003235B091901FA6813469B0013449A00B0
:10491C001A447B685B689B00B2FBF3F21A4BA3FB57
:10492C0002035B09642000FB03F3D31A1B0132332F
:10493C00154AA2FB03235B0903F0F0031944FA6840
:10494C0013469B0013449A001A447B685B689B00D7
:10495C00B2FBF3F20C4BA3FB02035B09642000FBDC
:10496C0003F3D31A1B013233074AA2FB03235B095F
:10497C0003F00F027B681B680A449A6000BF103773
:10498C00BD4680BD003801401F85EB51014B1868B6
:10499C00704700BF3400002070B500260C4D0D4C44
:1049AC00641BA410A64209D100F09CFC00260A4D01
:1049BC000A4C641BA410A64205D170BD55F8043BEB
:1049CC0098470136EEE755F8043B98470136F2E775
:1049DC00745300087453000874530008785300088B
:1049EC0003460244934200D1704703F8011BF9E7D8
:1049FC000EB46FF0004100B59CB01DAB0290069058
:104A0C00079104910848094953F8042B0591006853
:104A1C0002A9019300F068F80022029B1A701CB0E6
:104A2C005DF804EB03B07047340000200802FFFF70
:104A3C002DE9F0478E6882469E420C4690461F46F2
:104A4C0038D88A8912F4906F32D0256809690133FD
:104A5C00A5EB010965694B4405EB450505EBD575DF
:104A6C006D109D4238BF1D46530531D5294600F0C7
:104A7C006FFB064650B90C234FF0FF30CAF80030DC
:104A8C00A38943F04003A381BDE8F0874A4621691E
:104A9C0000F0CEFAA38923F4906343F08003A38142
:104AAC0026614E4426603E466561A5EB0905A5606E
:104ABC00BE4200D93E4632464146206800F0C6FA56
:104ACC00A36800209B1BA360236833442360DBE7AF
:104ADC002A4600F0B1FB06460028E1D15046216978
:104AEC0000F0CEFAC7E700002DE9F04F98468B890D
:104AFC0007461B060D4614469DB00ED50B6963B9CF
:104B0C00402100F025FB2860286120B90C233B6074
:104B1C004FF0FF30D1E040236B6100230993202339
:104B2C008DF8293030234FF00109CDF80C80DFF8D7
:104B3C00A4818DF82A3023469A4613F8012B0AB12A
:104B4C00252AF9D1BAEB040B0BD05B462246294639
:104B5C003846FFF76DFF013000F0AA80099A5A44DD
:104B6C0009929AF80030002B00F0A28000234FF03D
:104B7C00FF32CDE905230AF1010A049307938DF85E
:104B8C0053301A935446052214F8011B514800F077
:104B9C0041FA049AD8B9D00644BF20238DF853307B
:104BAC00110744BF2B238DF853309AF800302A2B71
:104BBC0015D0544600204FF00A0C079A214611F8E4
:104BCC00013B303B092B4ED9B0B1079214E0A0EB5E
:104BDC00080309FA03F31343A2460493D2E7039B99
:104BEC00191D1B680391002BBBBF5B4242F00202F4
:104BFC0007930793B8BF049223782E2B0CD16378BC
:104C0C002A2B35D1039B02341A1D1B680392002BEF
:104C1C00B8BF4FF0FF330593DFF8BCA0032250461A
:104C2C00217800F0F7F940B14023A0EB0A0003FA19
:104C3C0000F0049B01340343049314F8011B062277
:104C4C0026488DF8281000F0E5F9002838D0244BC0
:104C5C001BBB039B073323F0070308330393099B08
:104C6C003344099367E70C4601200CFB0232A5E79D
:104C7C0000234FF00A0C194601340593204610F816
:104C8C00012B303A092A03D9002BC5D00591C3E773
:104C9C00044601230CFB0121F0E703AB00932A46E9
:104CAC003846104B04A9AFF30080421C0646D6D1FF
:104CBC00AB895B063FF52CAF09981DB0BDE8F08FB2
:104CCC0003AB00932A463846064B04A900F07CF847
:104CDC00EBE700BF40530008465300084A53000856
:104CEC00000000003D4A00082DE9F04716469946A1
:104CFC008A680B6907469342B8BF1346336091F834
:104D0C0043200C46DDF820800AB101333360236860
:104D1C00990642BF336802333360256815F00605E7
:104D2C0006D104F1190AE36832689B1AAB4228DCFD
:104D3C0094F84320131E226818BF012392062DD429
:104D4C004946384604F14302C047013020D023685D
:104D5C00E56803F00603042B18BF002532684FF0FA
:104D6C000006A36808BFAD1A226908BF25EAE575DD
:104D7C009342C4BF9B1AED181A34B5421AD10020C5
:104D8C0008E00123524649463846C047013003D15A
:104D9C004FF0FF30BDE8F0870135C4E73020E11853
:104DAC0081F843005A1C94F845102244023382F8CF
:104DBC004310C5E70123224649463846C047013017
:104DCC00E6D00136D9E700002DE9FF470F7E91466A
:104DDC00782F80460C469A460C9D01F1430207D869
:104DEC00622F0AD8002F00F0D980582F00F0A48031
:104DFC0004F1420584F842703AE0A7F16303152BE5
:104E0C00F6D801A151F823F06D4E0008814E000830
:104E1C00FD4D0008FD4D0008FD4D0008FD4D00083E
:104E2C00814E0008FD4D0008FD4D0008FD4D0008A9
:104E3C00FD4D00088F4F0008B14E0008714F00085F
:104E4C00FD4D0008FD4D0008B14F0008FD4D000858
:104E5C00B14E0008FD4D0008FD4D0008794F0008CB
:104E6C002B681A1D1B682A6004F1420584F8423035
:104E7C000123A4E020682968060601F104030AD581
:104E8C000E682B60002E03DA2D23764284F8433013
:104E9C000A235E4819E00E6810F0400F2B6018BF13
:104EAC0036B2EFE72B682068191D2960010601D581
:104EBC001E6802E04606FBD51E886F2F0CBF082328
:104ECC000A235248002184F843106568002DA8BFBE
:104EDC002168A560A4BF21F0040121600EB9002D4A
:104EEC004DD01546B6FBF3F103FB1167C75D05F812
:104EFC00017D3746BB420E46F4D9082B0BD12368F3
:104F0C00DE0708D5236961689942DEBF302305F8B6
:104F1C00013C05F1FF35521B22614B4621464046B0
:104F2C00CDF800A003AAFFF7DFFE01304CD14FF003
:104F3C00FF3004B0BDE8F087344881F8457029682B
:104F4C00236851F8046B29601D0614D5DF0744BF94
:104F5C0043F0200323601EB9236823F02003236051
:104F6C001023AFE7236843F02003236078232848FD
:104F7C0084F84530E3E7590648BFB6B2E6E7154674
:104F8C00BBE72B682668181D6169286035061B680D
:104F9C0001D5196002E07006FBD519800023154677
:104FAC002361BAE72B6800211A1D2A601D6862680C
:104FBC00284600F02FF808B1401B6060636823613D
:104FCC00002384F84330A8E72A4649464046236923
:104FDC00D0470130ABD023689B0713D4E068039B08
:104FEC009842B8BF1846A4E70123324649464046CA
:104FFC00D04701309BD00135E36803995B1AAB4273
:10500C00F2DCEBE7002504F11906F5E75153000833
:10501C0062530008034610B5C9B2024493421846C5
:10502C0001D1002003E0047801338C42F6D110BD8D
:10503C000A44914200F1FF3300D1704710B511F8CA
:10504C00014B914203F8014FF9D110BD884210B5C4
:10505C0001EB020402D98442234607D8431EA14225
:10506C0008D011F8012B03F8012FF8E70146024490
:10507C008A4200D110BD13F8014D02F8014DF7E73B
:10508C0038B50546002940D051F8043C0C1F002BC4
:10509C00B8BFE41800F010F91C4A136833B9636008
:1050AC0014602846BDE8384000F00CB9A34208D97A
:1050BC00206821188B4201BF19685B6809182160B0
:1050CC00EDE71A465B680BB1A342FAD91168501888
:1050DC00A0420BD120680144501883421160E0D1EA
:1050EC0018685B68014411605360DAE702D90C233D
:1050FC002B60D6E7206821188B4201BF19685B68CA
:10510C000918216063605460CBE738BD440100206E
:10511C0070B50E4E0C463168054611B900F0BCF85E
:10512C0030602146284600F0B7F8431C0AD0C41C56
:10513C0024F00304A04207D0211A284600F0ACF852
:10514C00013001D14FF0FF34204670BD48010020E2
:10515C002DE9F041CD1C25F0030508350C2D38BF89
:10516C000C25002D074601DBA94205D90C2300268E
:10517C003B603046BDE8F0812E4E00F09DF8336860
:10518C001C4634BB29463846FFF7C2FF431C044675
:10519C004DD134682646002E40D12368314638461E
:1051AC0004EB030800F078F880453AD12168033508
:1051BC006D1A25F0030508350C2D38BF0C25384623
:1051CC002946FFF7A5FF01302BD023682B44236021
:1051DC000EE02268521B1ED40B2A16D96119A34269
:1051EC00256018BF5960636808BF316062514B601D
:1051FC00384604F10B0600F065F826F00706231D6F
:10520C00F21AB6D09B1BA350B3E76268A3420CBF43
:10521C0032605A60ECE723466468B2E7344676683D
:10522C00B9E70C2338463B6000F04CF8A1E7256049
:10523C00DEE700BF440100202DE9F0418046144612
:10524C000E4621B91146BDE8F041FFF781BF2AB9DE
:10525C00FFF716FF25462846BDE8F08100F038F828
:10526C008442074602D8B4EB500F12D82146404670
:10527C00FFF76EFF05460028EDD0BC4222463146B2
:10528C0028BF3A46FFF7D4FE31464046FFF7F8FEFA
:10529C00E1E73546DFE7000038B50023054D04464D
:1052AC0008462B60FCF7AAFA431C02D12B6803B109
:1052BC00236038BD4C010020014800F011B800BF3C
:1052CC0050010020014800F00CB800BF5001002034
:1052DC0051F8043C181F002BBCBF0B58C01870476A
:1052EC0070477047F8B500BFF8BC08BC9E467047C5
:0C52FC00F8B500BFF8BC08BC9E46704727
:1053080021375345473D25642564230D0A000000D5
:1053180002030405060708090A0B0C0D0E0F1010EE
:10532800000000000000000001020304060708094D
:105338000000000001020304232D302B2000686CBC
:105348004C006566674546470030313233343536A0
:1053580037383941424344454600303132333435D9
:0C53680036373839616263646566000006
:0453740031010008FB
:045378000D0100081B
:10537C000C0000000C0000000C0000000C000000F1
:10538C000500000003000000020000000500000002
:10539C0003000000020000000024F40010000000D4
:1053AC000100000038000020000000000000000098
:1053BC0000000000000000000000000000000000E1
:1053CC0000000000000000000000000000000000D1
:1053DC0000000000000000000000000000000000C1
:1053EC0000000000000000000000000000000000B1
:1053FC0000000000000000000000000000000000A1
:08540C00000000000000000098
:04000005080020D5FA
:00000001FF
